:060000000A128A110C280F
:10000800FE00030EF2000A08F3000A128A116B2898
:100018000A128A110F280A128A11A4200A128A11B8
:10002800A0000A128A11A5200A128A11A1000A1238
:100038008A11A6200A128A11A2000A128A11A72080
:100048000A128A11A300F701F801F901FA018301E4
:100058000A128A112F288316031307120811083071
:1000680083120313920015308316031392008C1425
:100078000B178B1783120313121508117808803A8F
:10008800FF0080307F02031D4B283A307702031CA3
:100098004E284F285128F701F8010330F6008A301E
:1000A800F5005530F400F40B5728F50B5728F60BDC
:1000B80057285E288312031308150130F707031821
:1000C800F80A0030F80741280A128A110C2883120E
:1000D80003138C1C702871289D287230790604300F
:1000E80003197A06031D79287A287C28F901FA0170
:1000F80079087A04031D812882288328071677083F
:10010800393EF00078080318013E003EF1007A08F5
:100118007106031D912879087006031D94289528F7
:10012800962807120130F9070318FA0A0030FA076F
:100138008C1073088A00720E8300FE0E7E0E090072
:080148005534503453342034C7
:02400E007A3FF7
:00000001FF
